:020000040800F2
:10000000E815002049A60008250E0008270E000864
:100010002B0E00082F0E0008330E00080000000011
:10002000000000000000000000000000390E000881
:10003000370E0008000000003B0E00083D0E0008CF
:1000400063A6000863A6000863A6000863A600086C
:1000500063A6000863A6000863A6000863A600085C
:1000600063A6000863A6000863A6000863A600084C
:1000700063A6000863A6000863A6000863A600083C
:1000800063A6000863A6000863A6000863A600082C
:1000900063A6000863A6000863A6000863A600081C
:1000A00063A6000863A6000863A6000863A600080C
:1000B00063A6000863A6000863A6000863A60008FC
:1000C00063A6000863A6000863A6000863A60008EC
:1000D00063A60008510F000863A600082710000857
:1000E000AB10000863A6000863A6000863A600081A
:1000F00063A6000863A6000863A6000863A60008BC
:1001000063A6000863A6000863A6000863A60008AB
:10011000F51000089311000863A6000863A6000804
:100120006D0E000863A6000863A6000863A6000819
:1001300063A6000863A6000863A6000863A600087B
:1001400063A6000863A6000863A6000863A600086B
:1001500063A6000863A6000863A6000863A600085B
:1001600063A6000863A6000863A6000863A600084B
:1001700063A6000863A6000863A6000863A600083B
:1001800063A6000800F002F800F03FF80AA090E82B
:10019000000C82448344AAF10107DA4501D100F042
:1001A00034F8AFF2090EBAE80F0013F0010F18BFD0
:1001B000FB1A43F001031847F8E5000018E60000B9
:1001C000103A24BF78C878C1FAD8520724BF30C883
:1001D00030C144BF04680C60704700000023002455
:1001E00000250026103A28BF78C1FBD8520728BF47
:1001F00030C148BF0B60704773290CF0AA850020FE
:1002000070471FB51FBD10B510BD0CF0AFFD1146F6
:10021000FFF7F7FF00F0DDF80CF0CDFD03B4FFF7BA
:10022000F2FF03BC0CF0CEFD08B54FF4C06007F040
:1002300091F825208DF8000000208DF801000120A4
:100240008DF802008DF80300684607F088F8272033
:100250008DF8000001208DF801008DF802008DF866
:100260000300684607F07BF838208DF80000002076
:100270008DF8010003208DF8020001208DF80300A5
:10028000684607F06CF817208DF8000000208DF804
:1002900001008DF8020001208DF80300684607F088
:1002A0005EF828208DF8000001208DF80100002064
:1002B0008DF8020001208DF80300684607F04FF822
:1002C00034208DF8000001208DF801008DF8020027
:1002D0008DF80300684607F042F835208DF80000DD
:1002E00000208DF801008DF8020001208DF8030038
:1002F000684607F034F808BD1FB501216F2008F0EB
:100300002DF80121880308F06DF84FF400400290A9
:1003100001208DF80C0003208DF80D0000208DF8D1
:100320000E0001208DF80F0002A9FE4808F0C2F966
:100330004FF40070029002A9FB4808F0BBF94FF49B
:100340008060029002A9F94808F0B4F94FF4807077
:10035000029002A9F54808F0ADF940200290002073
:100360008DF80C0003208DF80D0001208DF80F0092
:1003700002A9EE4808F09EF94FF40050029002A93D
:10038000EB4808F097F90621052008F039FF0D2108
:10039000022008F035FF4020009000208DF8040076
:1003A0000C208DF8050001208DF80600684608F045
:1003B0006DFF4FF40050009000208DF804001020D5
:1003C0008DF8050001208DF80600684608F05EFFF4
:1003D0001FBDADF52C7D0020AB902090814682465C
:1003E00083460890079006901E241F25202605901E
:1003F00002900AF098F801F06DF8FFF77DFFFFF723
:1004000013FF40F6B831032006F0BAFC7D2007F058
:1004100048FE08B108F0C5F84FF48071C34808F0F1
:10042000BDF9C44801F04EF806F0BCFCC14801F02B
:1004300049F806F0B7FC4FF48071BC4808F0B0F9F9
:100440004FF48061B94808F0A9F904F0DDFC05F02B
:1004500033F900200AF018F905F0D4FA05F044FE4B
:1004600006F0BEFB06F00FFC002006F03CFC00F09E
:1004700069FF01F0CBF901F0F5FC01F0D3F801F0D0
:1004800061F806F08FFC05220A211EA805F01AF972
:100490009DF87A0000F0BF008DF87A009DF87A0090
:1004A0000C2105F057FAA44900200BF0B6FB0523F8
:1004B00009AA0AA90BA806F045F84021994808F0B6
:1004C0006DF99E4800F0FEFF06F06CFC00209C4990
:1004D00008804860886008730120C884022081F881
:1004E0002800CC21964880F82910002095490880E2
:1004F0004860886008730120C884022081F82800C1
:10050000CC21904880F8291003F00EFD8E49088018
:10051000FEE303208D4908708D48007800287DD1C6
:100520008C4800688C490968884204D8894800686A
:10053000401C8849086087480068874909688842E4
:100540000ED14FF40071784808F028F9794800F08E
:10055000B9FF162002F006FC06F024FC03F0B6FDFD
:100560007E4800687E490968884204D87B48006854
:10057000401C7A49086079480068794909688842CE
:100580000DD14FF48061694808F00AF901207549DE
:100590000870684800F096FF664800F093FF06F088
:1005A00001FC0221604808F0FBF8624800F08AFF75
:1005B00002215D4808F0F2F86B48007800287DD0F1
:1005C0000698401CC0B2069006981E2876DB0020D4
:1005D000069006F0E7FB1222644921A80BF03AFBD3
:1005E00021A824990BF00DFF06F0DCFB0CA805F008
:1005F000AFFE3AE203A805F014FE9DF80C009DF84A
:100600000D1000EB012002B20598411CC9B2059102
:100610000CA921F810209DF80E0000E08CE39DF855
:100620000F1000EB012002B20598411CC9B20591E0
:100630000CA921F810209DF810009DF8111000EB76
:10064000012002B20598411CC9B205910CA921F8FC
:10065000102006F0A7FB05981E2801D10020059068
:100660001E2094FBF0F100FB11400CA931F8101092
:10067000E01E1E2290FBF2F302FB13000CAA32F8DC
:100680001000081A07B2E01C1E2190FBF1F201FBDA
:1006900012000CA931F810001E2194FBF1F201FBAD
:1006A00012410CAA32F81110401A0FFA80F807FB19
:1006B00008F00CF0AEFF2E4A2E4B00E0D7E1CDE95A
:1006C00000010CF0BDFF63D238460CF0A2FF21F010
:1006D00000410022284BCDE900010DF0EBF857D284
:1006E00040460CF096FF21F000410022224BCDE95C
:1006F00000010DF0DFF84BD2E11E1E2291FBF2F358
:1007000002FB13110CAA32F91120E11C1E2391FBEC
:10071000F3FC03FB1C110CAB33F91110501800EB68
:10072000D0712BE000180240000402400014024087
:100730000008024040420F002001002000350C005C
:10074000C8000020F40000205C00002016000020FB
:10075000200000200C0000200400002010000020D9
:10076000080000201E00002044000020D8070020C0
:10077000F168E388B5F8E43E00003E40491009B254
:100780001E2294FBF2F302FB13420CAB23F812106F
:1007900006F008FB1E2095FBF0F100FB11500CA9A0
:1007A00031F81010E81E1E2290FBF2F302FB13003A
:1007B0000CAA32F81000081A07B2E81C1E2190FBA0
:1007C000F1F201FB12000CA931F810001E2195FB7B
:1007D000F1F201FB12510CAA32F81110401A0FFA73
:1007E00080F807FB08F00CF014FFFE4AFE4BCDE941
:1007F00000010CF025FF36D238460CF00AFF21F03C
:1008000000410022F94BCDE900010DF053F82AD246
:1008100040460CF0FEFE21F000410022F34BCDE9F2
:1008200000010DF047F81ED2E91E1E2291FBF2F3E3
:1008300002FB13110CAA32F91120E91C1E2391FBB3
:10084000F3FC03FB1C110CAB33F91110501800EB37
:10085000D071491009B21E2295FBF2F302FB13522C
:100860000CAB23F812101E2096FBF0F100FB116078
:100870000CA931F81010F01E1E2290FBF2F302FBBF
:1008800013000CAA32F81000081A07B2F01C1E213F
:1008900090FBF1F201FB12000CA931F810001E21AF
:1008A00096FBF1F201FB12610CAA32F81110401A0A
:1008B0000FFA80F807FB08F00CF0ABFEC94ACA4BF0
:1008C000CDE900010CF0BCFE36D238460CF0A1FE9A
:1008D00021F000410022C54BCDE900010CF0EAFFF8
:1008E0002AD240460CF095FE21F000410022BF4B79
:1008F000CDE900010CF0DEFF1ED2F11E1E2291FB9D
:10090000F2F302FB13110CAA32F91120F11C1E2381
:1009100091FBF3FC03FB1C110CAB33F911105018C5
:1009200000EBD071491009B21E2296FBF2F302FBD4
:1009300013620CAB23F8121006F034FA0020089072
:100940001DE00898411CC9B208910CA931F81000AB
:1009500048440FFA80F90898411CC9B208910CA9C3
:1009600031F8100050440FFA80FA0898411CC9B2BF
:1009700008910CA931F8100058440FFA80FB089830
:100980001E28DEDB0A2099FBF0F00FFA80F90A201E
:100990009AFBF0F00FFA80FA0A209BFBF0F00FFAB6
:1009A00080FB09F0FF008DF86C004FEA19208DF8EC
:1009B0006D000AF0FF008DF86E004FEA1A208DF8E6
:1009C0006F0006F0EFF90BF0FF008DF870004FEAB2
:1009D0001B208DF8710086480068000E8DF87200AB
:1009E00083480068000C8DF8730081480088000A75
:1009F0008DF874007E4800788DF87500E01CC4B254
:100A0000E81CC5B2F01CC6B2212C02D10324042577
:100A1000052606F0C7F9AAAB0A221BA921A80BF0EC
:100A2000BCFA0298401CC0B202900298C82807D1B4
:100A30000020029006F0B6F921A80BF013FC15E097
:100A400006F0B0F96B48007858B96B48007840B9A7
:100A50006A48007828B96A48007810B9694800786F
:100A600018B121A80BF0FEFB00E0C3E500BF07981A
:100A7000401CC0B2079007980A2803D100200790B5
:100A800003F0BDFE5B480078002859D05E4800782E
:100A9000401C5D49087008460078062850D10020A7
:100AA00008702098401CC0B2209000205149087066
:100AB00006F078F9002255480178012001F085FB05
:100AC00053480088401C524908800846008801F0BD
:100AD000CFFC06F067F9209803282DD10020209044
:100AE0004FF480614B4807F059FE4FF400414A48EB
:100AF00007F056FE494800F0E5FC06F053F9474878
:100B000000F0E0FC06F04EF9444800F0DBFC06F093
:100B100049F9424800F0D6FC06F044F93F4800F09D
:100B2000D1FC06F03FF94FF480613A4807F038FEF7
:100B300001203449087003E03448007801F078FA65
:100B40002D48007820B100202B49087003F0EFFAFF
:100B50002A48007830B106F025F9002027490870AE
:100B600002F0B5FA2648007820B100202449087028
:100B700001F028FE4FF40051294807F0F5FD08B9AF
:100B800005F05BF827480078B0B1002025490870CF
:100B9000224800F097FC06F005F9204800F092FC8E
:100BA00006F000F9002020490870164908701B481B
:100BB00000F088FC06F0F6F81248007800287DD096
:100BC000164800F07FFC06F0EDF8AB981E2803DC19
:100BD000AB98401CC0B2AB90AB981E2874D10020DB
:100BE000AB9023E0F168E388B5F8E43E00003E40B6
:100BF00040000020140000202F00002029000020C9
:100C0000280000201E000020150000201F000020EA
:100C10005C000020001402400018024040420F0017
:100C2000000802404B000020440000206749087083
:100C30004FF40041664807F0B1FD0122D021104673
:100C400001F0C3FA63480088401C624908800846E6
:100C5000008801F00DFC082200215F4804F032FDFD
:100C60005D49487904F0ADFE5C4908705A49C8787E
:100C700004F0A7FE594948705749887804F0A1FE4E
:100C8000564988705449487804F09BFE5349C8700F
:100C90005149087804F095FE50490871504800F019
:100CA00011FC06F07FF84E4800F00CFC06F07AF8D4
:100CB0004B4800F007FC06F075F800E004E04848F7
:100CC00000F000FC06F06EF806F06CF8454800787D
:100CD00090B300204349087043480078042808D1A5
:100CE000002041490870414A9168D08CA42202F04A
:100CF000D8FD3D480078032808D100203A49087003
:100D00003B4A9168D08CA32202F0CBFD364800E02C
:100D10005AE00078052805D1002033490870B22038
:100D200002F079FF30480078062805D100202E49CE
:100D30000870B32002F06FFF2E480078012843D1DD
:100D400000202C49087006F0E1FA2B480078D8B34F
:100D5000002029490870002240F22551274807F059
:100D6000F9F800201C4908702548007804F033FE8B
:100D7000194948702348007804F02DFE1649887000
:100D80002148007804F027FE1349C870012008713B
:100D90001E48007804F01FFE0F4948711C48007877
:100DA00004F019FE0C4988711A48007804F013FE0B
:100DB0000949C87108220021074804F00BFD05F01D
:100DC000F1FFC12003F052F8FFF7A3BB1E00002083
:100DD000001802405C0000204D000020560000205A
:100DE00040420F004C0000203C000020C8000020C2
:100DF000F400002020000020960000200050004059
:100E0000920000209100002090000020930000201C
:100E1000940000209500002000BF0100A0F1010017
:100E2000FBD17047704700BFFEE700BFFEE700BF81
:100E3000FEE700BFFEE770477047704710B500F04F
:100E40006EFBFE48007880B1FD480088401CFC49DC
:100E5000088008460088B0F57A7F06D10020088017
:100E6000F8480068401CF749086010BD10B5F64905
:100E7000F64806F096FE002869D0F349F34806F0DC
:100E8000B9FE0021F24806F00CFC0021F04806F003
:100E900029FB05F087FFEF4A5288EE4B1B891A4465
:100EA000EC4BDB891A44EB4B9B8A1A441101CA179D
:100EB00001EB92729010C21700EB12521213E64B24
:100EC0001A801846008800EB401019460880E14A55
:100ED0001288E04BDB881A44DE4B9B891A44DD4BB9
:100EE0005B8A1A446E2302FB03F1CA1701EB92726C
:100EF0009010C21700EB12521213D84B1A801846EA
:100F0000008800EB40101946088005F04BFFD14ADD
:100F10009288D04B5B891A44CE4B1B8A1A44CD4B26
:100F2000DB8A1A444FF47A7302FB03F1CA1701EB10
:100F300092729010C21700EB1252C2F30F32C84BDC
:100F40001A801846008800EB40101946088010BD32
:100F500010B540F22551C34807F037F8002861D09A
:100F600040F22551BF4807F027F8BE4806F06BFF56
:100F7000BD49087008460178BC4802780078401CDA
:100F8000BA4B1870BA48815400787E2847D1184669
:100F90000078052846DBB6484078B649097888428B
:100FA0001DD1B3488078D0B918460078082839D1C7
:100FB000002019460870AE48C0780C2832D0AC48E2
:100FC000C0780D282ED0AC480078401CAA49087083
:100FD000A748407910BB0120A849087022E0A44826
:100FE0008078A4490978884215D1A048007805285E
:100FF00003D19F480079A24908709C480178A04815
:101000000078C01D81420DD1002098490870012050
:101010009C49087006E000209449087002E0002016
:101020009249087010BD10B540F22551964806F05F
:10103000CCFF002838D040F22551934806F0BCFF81
:10104000914806F000FF91490870084601789048E1
:1010500002780078401C8E4B18708E4881541846D8
:101060000078052820DB8B4800787E2819D11846A7
:101070000078052818DB18460078052803D1854834
:101080000079854908708248017883480078C01D3E
:10109000814209D101208149087000207C490870F3
:1010A00002E000207A49087010BD10B54FF40050DE
:1010B00008F052F9E8B142F21070FFF7ADFE4FF4BC
:1010C0000051774807F050FB78B94FF480717548AC
:1010D00007F064FB7448FFF79FFE7348FFF79CFE20
:1010E0004FF480716F4807F05BFB4FF4005008F03D
:1010F00044F910BD10B540F225516C4806F065FF6B
:10110000002845D040F22551684806F055FF674851
:1011100006F099FEC4B2664801780078401C644A23
:1011200010706448445410460078032830DB61484E
:1011300000787E2829D15F4840787E2825D15D48F7
:1011400080787E2821D010460078042820DB1046C5
:101150000078042803D15748C0785749087054488C
:10116000017855480078801D814205D101205349FE
:10117000087000204E4908704F480078801D0E28E6
:1011800006DD00204A49087002E000204849087046
:1011900010BD10B540F22551494806F000FF002867
:1011A0004AD040F22551464806F006FF444806F072
:1011B0004AFEC1B2434802780078401C414B187087
:1011C0004148815418460078401E3F49085C242855
:1011D0000AD1087001201946087000203B490870A8
:1011E00001203B4908700CE038480078032808DAF1
:1011F00037480078012804D134480078401C33492E
:1012000008703248007803280CD12F482F490978FC
:10121000405C522806D000202C49087029490870EB
:101220002B49087027480078401E2749085C0A2887
:1012300077D1274800784DE073E00000440000209B
:101240004600002040000020208000101064024072
:1012500000200140800500203000002032000020E6
:101260003400002000100140360000202200002041
:1012700069050020160000202D0000202E0000200F
:1012800027000020290000200048004037000020EF
:1012900023000020E004002025000020280000207A
:1012A000000802400014024040420F00004C004081
:1012B0002400002072050020260000202F000020BE
:1012C0000050004021000020500300202A00002090
:1012D0002B000020012824D10020124908700CE0C6
:1012E000114810490978405C10490E4A1278885418
:1012F0000C480078401C0B4908700A4800780C49DB
:1013000009788842ECDB01200A4908700848007817
:101310000949086000200649087008490870084912
:10132000087010BD2C00002050030020F1070020A1
:101330002100002020000020800000202A00002042
:101340002B0000201CB50121042007F007F8012123
:10135000080207F047F80120009003208DF80400F0
:1013600000208DF8070069464A4807F0A3F90420D9
:10137000009003208DF8040000208DF807006946D6
:10138000444807F097F90820009003208DF80400E6
:1013900000208DF8070069463E4807F08BF91CBD18
:1013A00000B599B00121880506F0D8FF06F044F891
:1013B000394806F071FA002000903848019038480A
:1013C0000290002003900C200490002005904FF420
:1013D00080600690400007908000089040110990BE
:1013E00040020A9000200B9001200C9000200D90EC
:1013F0000E906946284806F0F1FA0122102126488D
:1014000006F0B2FB0121244806F022FB00200F90D9
:101410001090119012900FA806F048F80020139039
:1014200001208DF850008DF8510000201590179084
:1014300003208DF8600013A918484C3806F007F80F
:1014400001231A460C2115484C3806F08BF801236D
:1014500002220D2111484C3806F084F801230322A2
:101460000A210E484C3806F07DF801210B484C3813
:1014700006F022F9012109484C3806F012F9012141
:1014800006484C3806F02EF804484C3806F0C6F8EA
:1014900019B000BD00080240106402404C20014019
:1014A0008005002010B5002807DA0A07140E204A2C
:1014B00000F00F031B1FD45403E00A07130E1D4A4C
:1014C000135410BD1C49086000BF1B49096800295E
:1014D000FBD1704710B5194800681949B0FBF1F409
:1014E000B4F1807F01D3012011E024F07F40401E41
:1014F0004FF0E02148610F214FF0FF30FFF7D2FF9E
:1015000000204FF0E021886107200861002008B129
:1015100000BFFEE70021481EFFF7C4FF10BD0648CC
:10152000006820B104480068401E03490860704705
:1015300018ED00E000E400E038000020AC000020DE
:1015400040420F0000B587B0A84806F077FB0121A4
:10155000080506F036FF01214C2006F0FFFE4FF48F
:101560008070059001208DF8180002208DF8190078
:1015700000208DF81A0001208DF81B0005A99C4859
:1015800007F098F84FF4E13001900020ADF8080022
:10159000ADF80A00ADF80C00ADF810000C20ADF865
:1015A0000E0008220C21934807F007F908220221B7
:1015B000914807F002F94FF48050059000208DF813
:1015C0001A0001208DF81B0002208DF818008DF8FC
:1015D000190005A9874807F06DF804200590002040
:1015E0008DF81A0001208DF81B0002208DF81800DC
:1015F0008DF8190005A9804807F05CF801A97B481F
:1016000006F06AFB002240F22551784806F0A2FC61
:101610000121764806F0E8FB4021744806F0BFFC43
:1016200007B000BD00B587B00121102006F0DAFE3A
:101630000121880406F0C5FE0121032006F08EFE7C
:101640004FF4E13001900020ADF80800ADF80A0039
:10165000ADF80C00ADF810000C20ADF80E0007221C
:101660000921664807F0A9F807220A21634807F014
:10167000A4F84FF40070059000208DF81A000120A6
:101680008DF81B0002208DF818008DF8190005A9AF
:101690005A4807F00FF84FF48060059002208DF84B
:1016A000180005A9554807F005F801A9544806F0A7
:1016B00013FB012240F22551514806F04BFC012159
:1016C0004F4806F091FB40214D4806F068FC4FF46E
:1016D000E13001900020ADF80800ADF80A00ADF847
:1016E0000C00ADF810000C20ADF80E0007220A2106
:1016F000444807F062F807220B21424807F05DF8E2
:101700004FF48060059000208DF81A0001208DF8BC
:101710001B0002208DF818008DF8190005A9394822
:1017200006F0C8FF4FF40060059002208DF8180005
:1017300005A9344806F0BEFF01A9334806F0CCFAEB
:10174000012240F22551304806F004FC01212E48C8
:1017500006F04AFB40212C4806F021FC07B000BDF2
:1017600010B504462146284806F069FB00BF402119
:10177000254806F014FC0028F9D010BD10B5044629
:1017800021461F4806F05BFB00BF40211C4806F0C5
:1017900006FC0028F9D010BD10B504464FF4807146
:1017A000134806F0FBFF4FF4FA60FFF78BFE402171
:1017B0000E4806F001FC0BE021780C4806F03FFBD8
:1017C00000BF4021094806F0EAFB0028F9D0641C5C
:1017D00020780028F0D14FF48071054806F0E0FF32
:1017E0004FF4FA60FFF76EFE10BD0000005000409D
:1017F0000018024000080240000C024000000240B5
:1018000000100140000402400048004000B58FB0C5
:101810000121782006F0A2FD0121084606F0C0FD56
:101820000C220021FB4806F0C8FF0C220121F948D8
:1018300006F0C3FF0C220421F64806F0BEFF0C227E
:101840000521F44806F0B9FF0C220621F14806F004
:10185000B4FF0C220721EF4806F0AFFF0C2208214D
:10186000EC4806F0AAFF0C220921EA4806F0A5FF81
:101870000C220A21E74806F0A0FF0C220B21E548C4
:1018800006F09BFF0C221146E24806F096FF0C2260
:101890000D21E04806F091FF0C220E21DD4806F0F4
:1018A0008CFF0C220F21DB4806F087FF4FF6F37008
:1018B0000D9002208DF8380003208DF839000020AB
:1018C0008DF83A0001208DF83B000DA9D14806F0B3
:1018D000F1FE0C220021D04806F06FFF0C220121FE
:1018E000CD4806F06AFF0C220221CB4806F065FFC6
:1018F0000C220321C84806F060FF0C220421C648D0
:1019000006F05BFF0C220521C34806F056FF0C22AF
:101910000621C14806F051FF0C220721BE4806F0FF
:101920004CFF0C220821BC4806F047FF0C2209217D
:10193000B94806F042FF0C220A21B74806F03DFFE5
:101940000C220B21B44806F038FF0C221146B24895
:1019500006F033FF0C220D21AF4806F02EFF0C22BB
:101960000E21AD4806F029FF0C220F21AA4806F0EF
:1019700024FF4FF6FF700D900DA9A74806F09AFEC0
:101980000C220021A54806F018FF0C220121A348D3
:1019900006F013FF0C220221A04806F00EFF0C22D5
:1019A00003219E4806F009FF0C2204219B4806F003
:1019B00004FF0C220521994806F0FFFE0C22114677
:1019C000964806F0FAFE0C220D21944806F0F5FE2A
:1019D0000C220E21914806F0F0FE0C220F218F48B8
:1019E00006F0EBFE4FF23F000D900DA98B4806F07C
:1019F00061FE0C2200218A4806F0DFFE0C22012144
:101A0000874806F0DAFE0C220221854806F0D5FE52
:101A10000C220321824806F0D0FE0C2204218048CB
:101A200006F0CBFE0C2205217D4806F0C6FE0C22F6
:101A300009217B4806F0C1FE0C220A21784806F0F5
:101A4000BCFE0C221146764806F0B7FE41F23F601C
:101A50000D900DA9724806F02DFE0020099004207B
:101A60000A9002200B9000200C9010200090022081
:101A7000019000200290402003904FF4C020049079
:101A800000200590069009A807900890684606F087
:101A9000C4FF0121102007F01CF80FB000BD002189
:101AA0009022604B1A7000225F4B1A704FF0E04298
:101AB000116801700A0A42700A0C82700A0EC27024
:101AC000704701464FF480708A88521C8A808A8849
:101AD000402A11D100228A804A88521C4A804A88B2
:101AE000B2F5806F08D100224A800A88521C0A8011
:101AF0000A88012A00D1400070470021002070228E
:101B0000484B1A701206117811F0010F01D0012014
:101B100006E001F04002402A01D1402000E0002010
:101B2000704730B54FF080744025FFF7E6FF05465B
:101B300003E0FFF7E2FF0546641E402D01D0002CB4
:101B4000F7D10CB94FF48065284630BD2DE9FF4729
:101B500007461C460025A8464FF480794026AA4631
:101B600041E080202F49087000202F49087008703C
:101B7000BDF80610BDF8040001EB8020BDF8081088
:101B800001EB801028490870BDF80610BDF804006C
:101B900001EB8020BDF8081001EB8010000A2249FB
:101BA00008704FEAC82000F5006A00BF40211948BC
:101BB00006F0DAFD0028F9D004E0785D4FF0E0414E
:101BC00008706D1C5545F8D3102016490870FFF7B2
:101BD000A8FF0646402E06D108F10108641E01A8A0
:101BE000FFF76FFF814624B1B9F5807F01D1402E08
:101BF000B7D046EA090004B0BDE8F0872DE9FF47F9
:101C000006461C46002500274FF480784FF0400917
:101C1000AA4645E0000C02400010024000140240B9
:101C20000018024000000170000002700020CF493F
:101C30000870CF4908700870BDF80610BDF80400A0
:101C400001EB8020BDF8081001EB8010C849087036
:101C5000BDF80610BDF8040001EB8020BDF80810A7
:101C600001EB8010000AC24908703020BF4908709B
:101C7000F80200F5006A00BF4021BE4806F074FD7E
:101C80000028F9D004E04FF0E040007870556D1C5A
:101C90005545F8D37F1C641E01A8FFF712FF80464C
:101CA00014B1B8F5807FC1D0FFF73BFF814649EA08
:101CB000080004B0BDE8F0872DE9FF4707461C4641
:101CC0000025A8464FF480794026AA4642E08020AD
:101CD000A64908700020A649087008200870BDF8C1
:101CE0000610BDF8040001EB8020BDF8081001EBE0
:101CF00080109F490870BDF80610BDF8040001EB84
:101D00008020BDF8081001EB8010000A9849087087
:101D10004FEA881000F1400A00BF4021954806F0C4
:101D200023FD0028F9D004E0785D4FF0E041087011
:101D30006D1C5545F8D310208C490870FFF7F1FE53
:101D40000646402E06D108F10108641E01A8FFF7DF
:101D5000B8FE814624B1B9F5807F01D1402EB6D0BE
:101D600046EA090004B0BDE8F0872DE9FF470646C2
:101D70001C46002700254FF480784FF04009AA4602
:101D80003AE0002079490870794908700820087005
:101D9000BDF80610BDF8040001EB8020BDF8081066
:101DA00001EB801072490870BDF80610BDF8040000
:101DB00001EB8020BDF8081001EB8010000A6C498F
:101DC0000870302069490870B80100F1400A00BF6E
:101DD0004021684806F0C8FC0028F9D004E04FF024
:101DE000E040007870556D1C5545F8D37F1C641E8B
:101DF00001A8FFF766FE804614B1B8F5807FC0D019
:101E0000FFF78FFE814649EA080004B0BDE8F0877D
:101E100013B5602055490870BDF80210BDF80000E8
:101E200001EB8020BDF8041001EB801050490870D0
:101E3000BDF80210BDF8000001EB8020BDF80410D1
:101E400001EB8010000A4A490870D0204749087009
:101E500000BF4021474806F087FC0028F9D0FFF773
:101E600060FE1CBDFF2041490870402070472DE9ED
:101E7000FF4105461E460024402780203B4908704C
:101E800000203B4908700870BDF80610BDF804003A
:101E900001EB8020BDF8081001EB80103449087078
:101EA000BDF80610BDF8040001EB8020BDF8081055
:101EB00001EB8010000A2E49087000BF40212D4818
:101EC00006F052FC0028F9D005E0285D4FF0E04113
:101ED0000870601C84B2B442F7DB102023490870FC
:101EE000FFF71FFE0746384604B0BDE8F0812DE934
:101EF000FF4105461E460024402700201B4908706C
:101F00001B4908700870BDF80610BDF8040001EB0D
:101F10008020BDF8081001EB801015490870BDF84D
:101F20000610BDF8040001EB8020BDF8081001EB9D
:101F30008010000A0E49087030200C49087000BF5C
:101F400040210C4806F010FC0028F9D005E04FF0C5
:101F5000E04000782855601C84B2B442F7DBFFF7FC
:101F6000E0FD0746384604B0BDE8F081000001708E
:101F700000000270000C0240F0B502460C464FF61D
:101F8000FF70002515E012F8011B81EA000303F041
:101F90000F03DFF898C03CF8133083EA201080EA82
:101FA000211303F00F033CF8133083EA20106B1C5D
:101FB0009DB2A542E7DB03464FEAE07C00EB1C6CD8
:101FC0004FEA2C2CA0EB0C2C0CF0FF064FEAE07C27
:101FD00000EB1C6CCCF3072747EA0620F0BD10B5D8
:101FE0000246514000230BE001F001004908C1F313
:101FF0000E0110B14AF20104614089B2581CC3B20B
:10200000082BF1DB084610BDF0B504460D4600274D
:10201000002606E020783946FFF7E1FF0746641CFA
:10202000761CAE42F6D33846F0BD000066E10008EB
:1020300070B586B00646FEA103C9CDE90401FEA134
:1020400003C9CDE90201FEA103C9CDE90001FE48A3
:1020500000788DF81100FC4800788DF81200FA48DD
:1020600000788DF80900F84800788DF80A00F648E5
:1020700000788DF80100F44800788DF8020004F033
:1020800091FEA6F1A00010287ED2DFE800F008093A
:102090008F476A0A0B313C8F8F8F8F0C8F0D00BFDB
:1020A00000BF00BF00BF00BF8DF81360052104A86A
:1020B000FFF7AAFF84B22046E11704EB1161090A79
:1020C0008DF81510E11704EB11610912A4EB012141
:1020D000C9B28DF8161004F065FE002505E004A9CC
:1020E000485DFFF73DFB681CC5B2072DF7DB5EE0DE
:1020F000002505E002A9485DFFF732FB681CC5B268
:10210000082DF7DB53E0002505E01DF80500FFF77B
:1021100027FB681CC5B2082DF7DB48E0A3208DF82B
:102120001300052104A8FFF76FFF84B22046E117D2
:1021300004EB1161090A8DF81510E11704EB116128
:102140000912A4EB0121C9B28DF81610002505E093
:1021500004A9485DFFF704FB681CC5B2072DF7DB37
:1021600025E0A4208DF81300052104A8FFF74CFFFB
:1021700084B22046E11704EB1161090A8DF81510AD
:10218000E11704EB116100E010E00912A4EB01215A
:10219000C9B28DF81610002505E004A9485DFFF7C7
:1021A000DFFA681CC5B2072DF7DB00E000BF00BFF7
:1021B00004F0F8FDA72E06D0A82E04D00120A349D4
:1021C0000870A348067006B070BDF0B58BB0064627
:1021D0000D4617461C2101A80AF056FD04F0E2FD49
:1021E0000822002108A803F06DFA9DF8260003F0EC
:1021F000E8FB0A2190FBF1F03030C0B28DF804000A
:102200009DF8260003F0DDFB0A2190FBF1F201FBB3
:1022100012003030C0B28DF805002D208DF8060078
:102220009DF8250003F0CDFB0A2190FBF1F0303042
:10223000C0B28DF807009DF8250003F0C2FB0A210B
:1022400090FBF1F201FB12003030C0B28DF80800B3
:1022500020208DF809009DF8230003F0B2FB0A212D
:1022600090FBF1F03030C0B28DF80A009DF82300E9
:1022700003F0A7FB0A2190FBF1F201FB12003030C2
:10228000C0B28DF80B003A208DF80C009DF82200AA
:1022900003F097FB0A2190FBF1F03030C0B28DF8CB
:1022A0000D009DF8220003F08CFB0A2190FBF1F257
:1022B00001FB12003030C0B28DF80E003A208DF8CC
:1022C0000F009DF8210003F07CFB0A2190FBF1F048
:1022D0003030C0B28DF810009DF8210003F071FB82
:1022E0000A2190FBF1F201FB12003030C0B28DF8F0
:1022F00011003A208DF812009DF8200003F061FBD8
:102300000A2190FBF1F03030C0B28DF813009DF837
:10231000200003F056FB0A2190FBF1F201FB1200B2
:102320003030C0B28DF8140020208DF815001EB991
:1023300057208DF8160002E04D208DF81600202061
:102340008DF8170028098DF81800092806DD9DF87A
:1023500018003730C0B28DF8180005E09DF818005D
:102360003030C0B28DF8180005F00F008DF819005C
:10237000092806DD9DF819003730C0B28DF8190024
:1023800005E09DF819003030C0B28DF8190020200A
:102390008DF81A001FB154208DF81B0002E0462072
:1023A0008DF81B000D208DF81C000A208DF81D00F3
:1023B00004F0F8FC122227A12A4809F04BFC04463D
:1023C0008CB92848C1680AF01CF804460AAB1A22E6
:1023D00001A9244809F0E1FD044604F0E3FC224889
:1023E000FFF770F81DE01F4809F03CFF1F48FFF79A
:1023F00069F8122217A11B4809F02CFC044684B985
:102400001848C16809F0FDFF04460AAB1A2201A969
:10241000144809F0C2FD044604F0C4FC1248FFF75A
:1024200051F8104809F01EFF04F0BCFC0BB0F0BDE1
:102430007E0101A0000000007E0101A7010191477B
:102440007E0101A8010192771600002014000020EF
:102450001F000020303A2F6C6F672F6C6F672E744F
:1024600078740000B405002020A1070040420F004E
:102470002DE9FC410446002600270020009026128A
:10248000E7B204F08FFC8DF800708DF8016004F065
:1024900089FC1222F9A1FE4809F0DCFB054665B96A
:1024A00001AB02226946FA4809F077FD054604F0BF
:1024B00079FCF848FFF706F818E0F54809F0D2FE75
:1024C000F548FEF7FFFF1222ECA1F14809F0C2FB2C
:1024D00005465DB901AB02226946ED4809F05DFD94
:1024E000054604F05FFCEB48FEF7ECFFE84809F016
:1024F000B9FE04F057FCBDE8FC81F8B504460E4671
:10250000174612222146E24809F0A4FB054675B998
:10251000DF48C16809F075FF054604F043FC6B46CF
:102520003A463146DA4809F038FD05461FE0D848FA
:1025300009F098FE04F036FCD748FEF7C3FF1222DC
:102540002146D34809F086FB054685B9D048C168C5
:1025500009F057FF054604F025FC6B463A46314624
:10256000CB4809F01AFD0546CA48FEF7ABFFC8483C
:1025700009F078FE04F016FCF8BD10B588B00446EA
:10258000002001900290039004F00CFC082200212E
:1025900006A803F097F89DF81E0003F012FA0A212E
:1025A00090FBF1F03030C0B28DF804009DF81E00B1
:1025B00003F007FA0A2190FBF1F201FB1200303020
:1025C000C0B28DF805009DF81D0003F0FAF90A214C
:1025D00090FBF1F03030C0B28DF806009DF81D0080
:1025E00003F0EFF90A2190FBF1F201FB1200303009
:1025F000C0B28DF807009DF81B0003F0E2F90A2134
:1026000090FBF1F03030C0B28DF808009DF81B004F
:1026100003F0D7F90A2190FBF1F201FB12003030F0
:10262000C0B28DF809009DF81A0003F0CAF90A211A
:1026300090FBF1F03030C0B28DF80A009DF81A001E
:1026400003F0BFF90A2190FBF1F201FB12003030D8
:10265000C0B28DF80B0000208DF80C0004F0A2FB36
:102660009DF81D0003F0ADF98DF810009DF81B00DA
:1026700003F0A7F98DF811009DF81A0003F0A1F9F5
:102680008DF812009DF8190003F09BF98DF81300E6
:102690009DF8180003F095F98DF8140024B1012C71
:1026A0000FD0022C2FD119E001AA7CA17F480AF09B
:1026B00079FA04F077FB052204A97C48FFF71DFF97
:1026C00021E001AA7AA17E480AF06CFA04F06AFBC4
:1026D000052204A97A48FFF710FF14E001AA79A1A6
:1026E0007C480AF05FFA04F05DFB052204A97948F2
:1026F000FFF703FF0020784908607849088001202F
:102700007749087000BF00BF08B010BD2DE9FC413B
:1027100006460F464FF000087E208DF800007148F5
:1027200000788DF8010000208DF802008DF803700C
:1027300001208DF80400F0B28DF8050006216846EE
:10274000FFF762FC84B22046E11704EB1161090A2D
:102750008DF80610E11704EB11610912A4EB0121B9
:10276000C9B28DF8071004F01DFB5F48007810B166
:1027700000205D490870002505E01DF80500FEF702
:10278000FDFF681CC5B2082DF7DB0DE008F1010064
:1027900000F0FF084048FEF795FE04F003FB3E48BA
:1027A000FEF790FE04F0FEFA4F480078022802D0AF
:1027B000B8F10F0FEADB4FF0000800204A4908701B
:1027C000BDE8FC812DE9F043A7B04FF00008C146F9
:1027D00046A207CA03AB07C347A207CA8DE8070092
:1027E000404800788DF8010000204649087004F048
:1027F000D9FA4548C078A03810283DD2DFE800F06B
:10280000089A3CE4F1F0EF3C3CEEED3C3CEC3CEB58
:1028100000203E4908703C48407978B13A484079F8
:1028200027490D39087308460088097B0844244964
:102830000D390880A320FFF7FBFB1BE00122A0213C
:102840001046FFF7C2FC32480088401C304908801F
:1028500008460088FFF70CFE2E480078032802D1B6
:1028600001202D4908702B480078062802D101204C
:1028700029490870274851E027E20000303A2F6CC0
:102880006F672F6C6F676C656E2E74787400000034
:10289000B405002020A1070040420F00303A2F6C01
:1028A000632F25732E62696E00000000D5000020A2
:1028B000303A2F64702F25732E62696E000000007D
:1028C00001010020303A2F7A742F25732E62696E31
:1028D00000000000D8070020400000204600002033
:1028E00044000020160000202D0000200000507E33
:1028F0007EAD0200000000007E0100AD020000007D
:102900000000000015000020E0040020140000205A
:102910005C0000203C0000204C00002000780128D2
:1029200007D10020FD490870FD490888A021FFF764
:10293000EDFE13E20020FB49087001221F21FFF782
:1029400044FCF9480088401CF74908800846008884
:10295000FFF78EFDF548407968B1F4484079F449B5
:10296000087308460088097B0844F1490880A420C0
:10297000FFF75EFB1BE00122A1211046FFF725FCBB
:10298000E9480088401CE849088008460088FFF7AD
:102990006FFDE2480078042802D10120E549087063
:1029A000DE480078052802D10120E2490870DB48A2
:1029B0000078022807D10020D8490870DC4908882F
:1029C000A121FFF7A3FEC9E10020D6490870D7482E
:1029D0000679052410E01AE118E105E1F2E099E03A
:1029E00089E040E0D148025D4846411C01F0FF0902
:1029F00006A90A54601CC4B2701D8442F2DB012295
:102A0000314606A802F00FF9324606A9C4480D3037
:102A1000FFF773FD4FF00009A720FFF709FBC0483F
:102A200040683044BE4948600846007B0A2808DDFB
:102A3000A320FFF7FDFABA48007B0A38B8490873AB
:102A400002E00120BB4908700122A3211046FFF7D4
:102A5000BCFBB5480088401CB34908800846008884
:102A6000FFF706FD7AE10020AE490870AF4807790C
:102A7000052409E0AD48025D4846411C01F0FF090C
:102A800006A90A54601CC4B2781D8442F2DB0022FD
:102A9000394606A802F0C7F83A4606A9A4480D3000
:102AA000FFF72BFD4FF00009A820FFF7C1FAA0485F
:102AB000406838449E4948600846007B0A2808DD83
:102AC000A420FFF7B5FA9A48007B0A3898490873A2
:102AD00002E00120974908700122A4211046FFF767
:102AE00074FB91480088401C8F4908800846008884
:102AF000FFF7BEFC32E10122A5211046FFF765FB7E
:102B000089480088401C8849088008460088FFF7EB
:102B1000AFFC23E100208349087084484079A0B1CC
:102B2000012001F0F3FF002001F0F0FF0120FFF78A
:102B300024FD0020FFF721FD0220FFF71EFD0020ED
:102B40007B494860764948602DE07B480078401C0E
:102B5000794908704FF40041784805F01FFE784825
:102B6000FEF7B0FC04F01EF97548FEF7ABFC04F06C
:102B700019F94FF40041714805F012FE7048FEF754
:102B8000A1FC04F00FF96E48FEF79CFC04F00AF972
:102B900069480078022803DAA620FFF749FA02E024
:102BA0000020654908700122A6211046FFF70DFBA1
:102BB0005D480088401C5C49088008460088FFF793
:102BC00057FCCBE00122A9211046FFF7FEFA564838
:102BD0000088401C5449088008460088FFF748FCDC
:102BE000A020FFF725FAB9E00122AA211046FFF73D
:102BF000ECFA4D480088401C4B4908800846008884
:102C0000FFF736FCA120FFF713FAA7E000BF002072
:102C1000444908704548C17801221046FFF7D5FAAB
:102C200048480078002851D04048C0788DF803000B
:102C300002208DF804003D4840798DF805003B489E
:102C400080798DF8060007216846FFF7DDF985B227
:102C50002846E91705EB1161090A8DF80710E917F5
:102C600005EB11610912A5EB0121C9B28DF808101D
:102C700004F098F83448007810B100203249087008
:102C8000002405E01DF80400FEF778FD601CC4B2C6
:102C9000092CF7DB0DE008F1010000F0FF082848DF
:102CA000FEF710FC04F07EF82548FEF70BFC04F05C
:102CB00079F825480078022802D0B8F10F0FEADB36
:102CC0004FF0000800202049087047E01748C078FE
:102CD0008DF8110002208DF81200144840798DF80B
:102CE0001300124880798DF81400092103A8FFF71A
:102CF0008BF985B22846E91705EB1161090A8DF8B1
:102D00001510E91705EB11610912A5EB0121C9B2F4
:102D10008DF8161004F046F800241DE03C00002059
:102D2000F4000020140000205C000020E0040020DB
:102D3000C80000204C00002048000020001802407D
:102D400040420F00490000202D00002003A9085D2B
:102D500004F002F8601CC4B20B2CF7DB00BF27B0F4
:102D6000BDE8F0837CB50646F7A103C9CDE90001B3
:102D7000F74800788DF80100F54800788DF80200DA
:102D800004F010F8122E06D0142E05D0162E04D002
:102D90001C2E25D102E000BF00BF00BF8DF80360EC
:102DA00004216846FFF730F984B22046E11704EBAE
:102DB0001161090A8DF80510E11704EB1161091280
:102DC000A4EB0121C9B28DF80610002505E01DF81D
:102DD0000500FEF7D3FC681CC5B2072DF7DB00E049
:102DE00000BF00BF03F0DEFF7CBD2DE9FC410646BD
:102DF0000027D84903C9CDE90001D54800788DF8EE
:102E000001008DF8036006216846FFF7FDF884B2E3
:102E10002046E11704EB1161090A8DF80610E1174D
:102E200004EB11610912A4EB0121C9B28DF807105E
:102E3000C948007810B10020C7490870002505E096
:102E40001DF80500FEF79AFC681CC5B2082DF7DBDB
:102E50000BE0781CC7B2C148FEF734FB03F0A2FFB9
:102E6000BE48FEF72FFB03F09DFFBB480078022809
:102E700001D00F2FEDDB00270020B7490870BDE817
:102E8000FC81FEB50546B6A207CA8DE80700B0482A
:102E900000788DF80100AE4800788DF802008DF8BA
:102EA0000350AE2D0AD1B14890F828008DF80500E6
:102EB000AE4890F829008DF806000BE0B02D09D13E
:102EC000AB4890F828008DF80500A94890F8290033
:102ED0008DF8060007216846FFF796F884B2204671
:102EE000E11704EB1161090A8DF80710E11704EBF3
:102EF00011610912A4EB0121C9B28DF8081003F089
:102F000051FF002605E01DF80600FEF729FC701CA5
:102F1000C6B2092EF7DBFEBD70B58CB000261121BC
:102F200007A809F0B1FE8B49083903C9CDE90501AD
:102F3000874800788DF8150000208DF816000822CB
:102F4000002101A802F0BEFB9DF80A0002F039FD45
:102F50008DF819009DF8090002F033FD8DF81A0074
:102F60009DF8070002F02DFD8DF81B009DF806006E
:102F700002F027FD8DF81C009DF8050002F021FDF0
:102F80008DF81D009DF8040002F01BFD8DF81E0059
:102F900003F008FFFEF704FA4FF4FA70FEF792FA16
:102FA00074480088642190FBF1F0C0B28DF81F00D6
:102FB0007048008890FBF1F201FB1200C0B28DF85E
:102FC00020009DF81F00202804DB00208DF81F0042
:102FD0008DF8200068480088642190FBF1F0C0B2B1
:102FE0008DF821006448008890FBF1F201FB12008B
:102FF000C0B28DF8220003F0D5FE03A802F070FDE8
:10300000012808D19DF80E008DF823009DF80C00D2
:103010008DF8240004E000208DF823008DF82400B2
:10302000564800788DF82500544840788DF82600E1
:10303000524880788DF827005048C0788DF82800D5
:103040004E4800798DF8290000208DF82A001721BC
:1030500005A8FEF7D9FF84B22046E11704EB116101
:10306000090A8DF82B10E11704EB11610912A4EB8A
:103070000121C9B28DF82C1003F094FE3648007877
:1030800010B1002034490870002505E005A9485D0D
:10309000FEF774FB681CC5B2192DF7DB0BE0701C42
:1030A000C6B22E48FEF70EFA03F07CFE2B48FEF760
:1030B00009FA03F077FE28480078022801D00F2E85
:1030C000EDDB00260020244908700CB070BD70B5FF
:1030D00088B0002007902AA207CA02AB07C303F0FA
:1030E00061FE2A484078002865D128488078184930
:1030F000097888425FD1002405E02448005D05A9D5
:103100000855601CC4B2042CF7DB01208DF81800B0
:103110008DF81900062105A8FEF776FF85B228462E
:10312000E91705EB1161090A8DF81A10E91705EB8B
:1031300011610912A5EB0121C9B28DF81B1003F032
:1031400031FE00242BE000007E010112000000008F
:103150001600002090E100082D00002040420F00E2
:103160007E0101AE0200000000000000C800002047
:10317000F400002032000020300000205600002023
:103180000000507E7E1C0100000000006905002048
:10319000F948FEF797F903F005FE601CC4B2042C51
:1031A000F6DB002405E005A9085DFEF7E7FA601CE0
:1031B000C4B2082CF7DBF148C078AB287ED012DC13
:1031C000A0287CD008DC122820D014282DD0162866
:1031D0003AD01C2874D146E0A12872D0A32871D01F
:1031E000A428F7D103E1B0286DD008DCAC286BD05F
:1031F000AD286AD0AE2869D0AF28EBD1DAE1B1288A
:1032000065D0B42871D0C028E4D16FE0012212212A
:103210000020FEF7DAFFDA480088401CD849088011
:1032200008460088FFF724F917E201221421002044
:10323000FEF7CBFFD2480088401CD14908800846E1
:103240000088FFF715F908E2012216210020FEF799
:10325000BCFFCB480088401CC9490880084600884C
:10326000FFF706F9F9E101221C210020FEF7ADFF6E
:10327000C3480088401CC249088008460088FFF700
:10328000F7F81C208DF80D00BC4840798DF80F0030
:10329000082102A8FEF7B8FE85B22846E91705EB1B
:1032A0001161090A8DF81010E91705EB1161091277
:1032B000A5EB0121C9B28DF8111009E0ACE057E08F
:1032C000CAE16AE07EE0ADE1C3E040E187E1F0E021
:1032D00003F068FD002405E002A9085D03F03CFD51
:1032E000601CC4B20A2CF7DBB7E1D1E00122C02197
:1032F0000020FEF76AFFA2480088401CA049088011
:1033000008460088FFF7B4F8002402F008F99D4849
:10331000FEF7D8F802F03CF903F044FD15E002F0A6
:10332000FEF89848FEF7CEF802F032F903F03AFDC5
:10333000601CC4B2002606E08F48FEF7C3F803F015
:1033400031FD701CC6B2032EF6DB032C06DA4FF4F7
:1033500000518D4805F008FA0028E0D04FF40051E4
:10336000894805F001FA10B101208849087074E11C
:103370000122A0210020FEF728FF81480088401C80
:103380007F49088008460088FFF772F801208049CD
:103390000870A020FEF74CFE5FE10122A121002071
:1033A000FEF713FF76480088401C754908800846E0
:1033B0000088FFF75DF8022075490870A120FEF72C
:1033C00037FE4AE10122A3210020FEF7FEFE6C48F1
:1033D0000088401C6A49088008460088FFF748F8C2
:1033E00003206B490870A020FEF722FE35E1012280
:1033F000A4210020FEF7E9FE61480088401C6049D6
:10340000088008460088FFF733F8042060490870F8
:10341000A120FEF70DFE20E10122AB210020FEF7E6
:10342000D4FE57480088401C55490880084600884B
:10343000FFF71EF84FF48061564805F0B1F9AB2054
:10344000FFF7D3FC0120544908704B48FEF73AF8C7
:1034500003E10122AC210020FEF7B7FE48480088B6
:10346000401C4749088008460088FFF701F84FF4E0
:103470008061484805F092F94FF40041474805F053
:103480008FF9002046490870AC20FFF7AEFCE4E05D
:103490000122B4210020FEF798FE39480088401C24
:1034A0003749088008460088FEF7E2FFFFF734FD41
:1034B000D3E00122B1210020FEF787FE30480088CA
:1034C000401C2F49088008460088FEF7D1FF2C4891
:1034D0000088401C2A49088008460088FEF7C8FF7B
:1034E0000020ADF80000ADF80200ADF8040003F0D4
:1034F00059FCDDE90001FEF78BFC012307A8DDE99B
:103500000012FEF7B4FC03F04DFC0020ADF8000003
:103510004FF40070ADF802000020ADF80400DDE9C2
:103520000001FEF775FC012307A8DDE90012FEF794
:103530009EFC00201B4908801B49088003F032FCD8
:10354000B120FFF752FC1948FDF7BCFF85E00122CE
:10355000AD210020FEF739FE09480088401C0849CB
:10356000088008460088FEF783FF01201049087094
:10357000AD20FEF75DFD70E040420F0069050020C0
:103580005C000020C0270900000802404B0000201A
:103590003C000020001402401E00002000180240E1
:1035A00044000020C8000020F4000020404B4C00E4
:1035B000490000200122AF210020FEF706FEFE4850
:1035C0000088401CFC49088008460088FEF750FF30
:1035D0000120FA490870AF20FEF72AFD3DE0F848C7
:1035E0004079F84981F82800F5488179F54880F854
:1035F00029100122AE210020FEF7E7FDEE480088E9
:10360000401CED49088008460088FEF731FF012084
:10361000EA490870AE20FFF734FCE949C878FFF7A3
:10362000E4FB1AE0E6484079E74981F82800E448DD
:103630008179E54880F829100122B0210020FEF7A9
:10364000C4FD0120DD490870B020FFF71AFCDC49F9
:10365000C878FFF7CAFB00E000BF00BF03F0A2FB81
:1036600008B070BD2DE9FF4FB7B081468A4693463A
:1036700000273E2106A809F007FBD44903C9CDE97C
:10368000040103F08FFBD24800788DF811003A98BE
:103690008DF813000020ADF80000ADF80290ADF8F1
:1036A00004A0012303A8DDE90012FEF720FC03F0CB
:1036B00079FB0020ADF80000A9F1010080B2ADF85F
:1036C0000200ADF804A09DF80C0000EB800101EBB6
:1036D000C00316A8DDE90012FEF709FC03F062FB47
:1036E0000DF158089DF80C0000EB800101EBC000C3
:1036F000342190FBF1F0C0B202909DF80C0000EB79
:10370000800101EBC000342190FBF1F201FB1200BB
:10371000C6B259E0002407E018F8011B04F10A00C2
:1037200004AA1154601CC4B2342CF5DB002406E05A
:103730001BF80410601D04AA1154601CC4B2052CAF
:10374000F6DB39208DF814003E2104A8FEF75CFC5E
:1037500085B22846E91705EB1161090A8DF84E106C
:10376000E91705EB11610912A5EB0121C9B28DF82A
:103770004F1003F017FB9748007810B100209549CF
:103780000870002405E004A9085DFDF7F7FF601C40
:10379000C4B2402CF7DB03F005FB0BE0781CC7B28A
:1037A0008D48FDF78FFE03F0FDFA8B48FDF78AFE8A
:1037B00003F0F8FA87480078022801D00F2FEDDBDC
:1037C00000270020834908700298411EC9B2029167
:1037D00000289FD1002E61D0002407E018F8011BBB
:1037E00004F10A0004AA1154601CC4B2B442F5DB0F
:1037F000002406E01BF80410601D04AA1154601C8C
:10380000C4B2052CF6DB701DC0B28DF8140006F1B1
:103810000A0104A8FEF7F8FB85B22846E91705EB74
:103820001161C1F3072204AB06F10A015A54E917EA
:1038300005EB11610912A5EB0121CAB206F10B01DA
:103840005A5403F0AFFA6348007810B10020614980
:103850000870002405E004A9085DFDF78FFF601CD7
:10386000C4B206F10C008442F5DB03F09BFA0BE0D6
:10387000781CC7B25848FDF725FE03F093FA564866
:10388000FDF720FE03F08EFA52480078022801D09E
:103890000F2FEDDB002700204E4908703BB0BDE83C
:1038A000F08F2DE9F04387B00446884617464FF065
:1038B000000903F077FAA42F01D1002502E0A32F1D
:1038C00000D101250020ADF800006806000CADF81D
:1038D00002000020ADF80400012305A8DDE9001274
:1038E000FEF705FB03F05EFAA1E00020ADF8000052
:1038F00004EB4400401E4FF4007101FB050080B250
:10390000ADF802000020ADF80400052302A8DDE9AF
:103910000012FEF7ECFA0020ADF8000004EB4400C2
:10392000801E4FF4007101FB050080B2ADF802006B
:103930000020ADF80400012306A8DDE90012FEF71F
:10394000D6FA03F02FFAB8F1000F14D101260DE0DA
:1039500004EB44014FF4007202FB051188B23B46B0
:1039600002AA3146FFF77EFE701CC6B29DF8180011
:103970008642EDDB53E0012637E00020ADF8000081
:1039800004EB44004FF4007101FB050080B2ADF878
:103990000200ADF80460012304A8DDE90012FEF77F
:1039A000A6FA03F0FFF99DF8100000EB800101EB8F
:1039B000C000484412E000005C00002049000020E4
:1039C00069050020C8000020F400002098E10008EC
:1039D000160000202D00002040420F001FFA80F941
:1039E000C14500D105E0701CC6B29DF818008642A2
:1039F000C3DB00BF701CC6B20DE004EB44014FF402
:103A0000007202FB051188B23B4602AA3146FFF75D
:103A100029FE701CC6B29DF818008642EDDB9DF8A9
:103A20001400844201DA4FF00008601C84B29DF853
:103A3000140084427FF759AF3DB9FE484068FD4904
:103A400088609DF81400C88406E0FB484068FA4985
:103A500088609DF81400C88407B0BDE8F0832DE9A4
:103A6000FF4FB7B0804689469246852115A809F0D8
:103A70000BF9F24903C9CDE91301362105A809F074
:103A800003F9EE480830006804903A988DF84E002B
:103A90000020ADF80400ADF80680ADF808900123D1
:103AA00003A8DDE90112FEF722FA9DF80C0000EBF5
:103AB000800101EBC000401DC0B28DF84F0003F043
:103AC00071F90020ADF80400A8F1010080B2ADF852
:103AD0000600ADF808909DF80C0000EB800101EBAA
:103AE000C0030DF15500DDE90112FEF700FA03F005
:103AF00059F9002406E01AF80410201D13AA1154E5
:103B0000601CC4B2052CF6DB9DF80C0000EB8002B3
:103B100002EBC00000F1090113A8FEF775FA85B2A7
:103B2000E91705EB1161C1F307229DF80C1001EBB9
:103B3000810303EBC101093113AB5A54E91705EBBB
:103B400011610912A5EB0121CAB29DF80C1001EB1D
:103B5000810303EBC1010A3113AB5A5413AE9DF834
:103B60000C0000EB800101EBC0000B303A2190FB10
:103B7000F1F000F0FF0B9DF80C0000EB800101EB71
:103B8000C0000B303A2190FBF1F201FB1200C7B2EA
:103B90001CE0002406E016F8011BE01C04AA1154E6
:103BA000601CC4B23A2CF6DB03F0FCF8002405E0FC
:103BB00004A9085D03F0D0F8601CC4B23D2CF7DB0B
:103BC0004CF25030FDF77EFC03F0ECF85FEA0B009E
:103BD000ABF1010101F0FF0BDBD1CFB1002406E016
:103BE00016F8011BE01C04AA1154601CC4B2BC42AC
:103BF000F6DB03F0D7F8002405E004A9085D03F024
:103C0000ABF8601CC4B2F81C8442F6DB03F0CAF8BF
:103C10003BB0BDE8F08FF0B587B006460024B22E69
:103C200000D102E0B32E00D101240020ADF8040041
:103C300000EB442080B2ADF806000020ADF808008B
:103C4000012305A8DDE90112FEF751F903F0AAF8F6
:103C5000012540E00020ADF8040005EB4500401EC2
:103C600000EB442080B2ADF806000020ADF808005B
:103C7000052303A8DDE90112FEF739F90020ADF8AC
:103C8000040005EB4500801E00EB442080B2ADF837
:103C900006000020ADF80800012306A8DDE90112A6
:103CA000FEF725F903F07EF801270EE005EB45014C
:103CB00001EB442188B2334603AA3946FFF7CFFE11
:103CC0005F48FDF7FFFB781CC7B29DF818008742DC
:103CD000ECDB681CC5B29DF814008542BADD07B064
:103CE000F0BD30B58BB0132106A808F0CDFF5349C5
:103CF0000C3103C9CDE9040108220021684601F016
:103D0000E1FC9DF8060001F05CFE8DF817009DF8BF
:103D1000050001F056FE8DF818009DF8030001F033
:103D200050FE8DF819009DF8020001F04AFE8DF852
:103D30001A009DF8010001F044FE8DF81B009DF86B
:103D4000000001F03EFE8DF81C0003F02BF8FDF79B
:103D500027FB4FF4FA70FDF7B5FB3A480088642161
:103D600090FBF1F0C0B28DF81D003648008890FB42
:103D7000F1F201FB1200C0B28DF81E009DF81D008B
:103D8000202804DB00208DF81D008DF81E002E4831
:103D90000088642190FBF1F0C0B28DF81F002A4822
:103DA000008890FBF1F201FB1200C0B28DF82000F8
:103DB00002A801F095FE012808D19DF80A008DF8AF
:103DC00021009DF808008DF8220004E000208DF805
:103DD00021008DF8220002F0E5FF1C4800788DF8E4
:103DE00023001A4840788DF82400184880788DF810
:103DF00025001648C0788DF82600144800798DF803
:103E0000270000208DF82800192104A8FEF7FCF8EF
:103E100084B22046E11704EB1161090A8DF82910DC
:103E2000E11704EB11610912A4EB0121C9B28DF86D
:103E30002A100DE0C8000020F4000020A0E10008D6
:103E4000A086010032000020300000205600002033
:103E500002F0A8FF002505E004A9485D02F07CFF00
:103E6000681CC5B21B2DF7DB0BB030BDFEB5064696
:103E7000FEA207CA8DE807008DF8056001208DF8C5
:103E800006008DF8070008216846FEF7BDF884B2E9
:103E90002046E11704EB1161090A8DF80810E117BB
:103EA00004EB11610912A4EB0121C9B28DF80910CC
:103EB000002505E01DF8050002F04EFF681CC5B2A4
:103EC0000A2DF7DBFEBD3EB5EB4A07CA8DE80700B9
:103ED000EA4808F0D8FC1A21E948FEF795F884B2C0
:103EE00066208DF806008DF807002046E11704EBE8
:103EF0001161090A8DF80810E11704EB116109122C
:103F0000A4EB0121C9B28DF80910002504E01DF8C9
:103F1000050002F021FF6D1C0A2DF8DB0020D949B5
:103F20000880FEF7A5FA3EBD2DE9FC4100240026DD
:103F30000020009002F036FF1122D349D34807F049
:103F400089FE074601AB02226946D04807F03AFFD6
:103F50000746CE4808F086F99DF800609DF80140BC
:103F600025464FF6FF7000EA052535462846BDE890
:103F7000FC812DE9F0418CB01A2104A808F084FEE0
:103F8000BD49083903C9CDE90201C1A103C9CDE981
:103F90000001FFF7C9FF8046B8F1000F08D10025E6
:103FA00004E01DF8050002F0D7FE6D1C082DF8DBBB
:103FB00002F0F8FE1122B149B44807F04BFE074663
:103FC000002F35D100262BE00BAB1A220DF10E018C
:103FD000AE4807F0F7FE07461A2102A8FEF714F8CC
:103FE00084B22046E11704EB1161090A8DF828100C
:103FF000E11704EB11610912A4EB0121C9B28DF89C
:104000002910002504E002A9485D02F0A5FE6D1C00
:10401000222DF8DB02F0C6FE9F48FDF753FA761C0E
:104020004645D1DB02F0BEFE9C48FDF74BFA4AE064
:10403000964808F017F99A48FDF744FA01228F498B
:10404000924807F007FE0746002F37D100262EE0E2
:104050000BAB1A220DF10E018C4807F0B3FE074698
:104060001A2102A8FDF7D0FF84B22046E11704EB25
:104070001161090A8DF82810E11704EB116109128A
:10408000A4EB0121C9B28DF82910002507E002A98F
:10409000485D02F061FE7D4808F0E4F86D1C222DB9
:1040A000F5DB02F07FFE7C48FDF70CFA761C4645F6
:1040B000CEDB02F077FE7948FDF704FA02F072FEDB
:1040C0007648FDF7FFF90CB0BDE8F0817CB575A12D
:1040D00003C9CDE90001754800788DF801007348E7
:1040E00000788DF80200724800788DF805000621EE
:1040F0006846FDF789FF84B22046E11704EB1161A1
:10410000090A8DF80610E11704EB11610912A4EBFE
:104110000121C9B28DF80710002505E01DF8050042
:10412000FDF72CFB681CC5B2082DF7DB7CBD70B514
:1041300088B0002007904DA207CA8DE8070002F062
:1041400031FE5C488078B2286FD017DCAC282ED0C6
:104150000CDC1E286AD004DC1C2868D01D2867D11E
:10416000F6E01F287ED0AB28F9D131E0AD38052824
:104170005ED2DFE800F0B1BFB8D4FF00BA2833D078
:1041800008DCA0F1B3000528F2D2DFE800F0F2F17C
:10419000F0EFEE00C22866D004DCC0282DD0C12884
:1041A000DDD15CE1C3285FD0E128D8D126E14FF40E
:1041B0008061414804F0F2FA4FF400413F4804F0B6
:1041C000EFFA00203E490870AC20FFF74FFEE5E112
:1041D0004FF48061384804F0E3FAAB20FFF746FE65
:1041E000012038490870D9E14FF48061324804F069
:1041F000D7FABA20FFF73AFED0E1002501F08FF997
:104200003148FDF75FF901F0C3F902F0CBFD19E089
:1042100001F085F92C48FDF755F901F0B9F902F0E4
:10422000C1FD681CC5B200260AE0D3E09DE18BE029
:10423000B3E11B48FDF746F902F0B4FD701CC6B2AD
:10424000032EF6DB032D06DA4FF400511F4804F06D
:104250008BFA0028DCD04FF400511C4804F084FA9B
:1042600018B135E08AE13BE160E134E00000507EC6
:104270007EAC010100000000BCE1000854240008ED
:10428000980500205C0000207C280008B405002070
:104290000000507E7EB70000A086010020A107002C
:1042A00040420F007E01011D0100000016000020A9
:1042B0000000002072050020001402400018024097
:1042C000440000201E000020C02709000008024012
:1042D0000120FE49087061E10020FD490870AD2011
:1042E000FDF7A6FE5AE10020F9490870AF20FDF75E
:1042F0009FFE53E1F7480079F74981F82800F54817
:104300004179F54880F829100020F1490870AE2065
:10431000FEF7B7FDEF498878FFF7A8FD3EE1ED48CD
:104320000079EE4981F82800EA484179EB4880F8A5
:1043300029100020E6490870B020FEF7A2FDE549EB
:104340008878FFF793FD29E11C20FEF70BFD25E19E
:10435000E0480079E2490870FFF7B8FE02F022FD5C
:104360001D20FFF783FD19E104E044E076E048E01A
:104370003EE036E00020ADF81400ADF81600ADF8D0
:104380001800DDE90501FDF743FD02F00BFD0123F7
:1043900007A8DDE90512FDF76AFD0020ADF814005D
:1043A0004FF40070ADF816000020ADF81800DDE9FC
:1043B0000501FDF72DFD02F0F5FC012307A8DDE95D
:1043C0000512FDF754FDB120FFF750FDC548FDF77C
:1043D00079F8E3E00520C4490870A120FDF728FE24
:1043E000DCE00620C0490870A020FDF721FED5E0E2
:1043F000FFF777FCD2E0FFF7BCFDCFE0FFF763FDEE
:10440000CCE00620B9490870B5208DF805000120E0
:104410008DF80600084600788DF8070008216846E8
:10442000FDF7F2FD84B22046E11704EB1161090AA1
:104430008DF80810E11704EB11610912A4EB0121BA
:10444000C9B28DF80910002505E01DF8050002F03D
:1044500083FC681CC5B20A2DF7DB9FE09EE09D49F6
:10446000C87A01F0B8FA8DF80C009A49887A01F000
:10447000B2FA8DF80D009749487A01F0ACFA8DF840
:104480000E009449087A01F0A6FA8DF80F009149C0
:10449000C87901F0A0FA8DF810008E49887901F0F2
:1044A0009AFA8DF811008B49487901F094FA8DF849
:1044B00012008849087901F08EFA8DF8130008225D
:1044C000002103A801F086F9012240F22551884815
:1044D00003F040FD02F066FCC120FFF7C7FC5DE081
:1044E0007C4909790846834908607A484079096817
:1044F00040EA01207F49086076488079096840EAEF
:1045000001207C4908604FF480617B4804F046F943
:104510004FF40041794804F043F9002078490870CD
:1045200078490860C220FFF7A1FC37E069490979A2
:1045300008467549086067484079096840EA0120E3
:104540007149086063488079096840EA01206E4932
:1045500008604FF400716D4804F022F900206C49A6
:104560000860C320FFF782FC18E04FF40071674831
:1045700004F016F91E20FFF779FC0FE04FF40071EC
:10458000624804F00BF96348FCF79CFF1620FEF725
:10459000E9FB1F20FFF76AFC00E000BF00BF02F04C
:1045A00001FC08B070BD0EB50020ADF8000040F26F
:1045B000FF30ADF802000020ADF80400012302A88E
:1045C000DDE90012FDF793FC9DF808000EBD01B572
:1045D00082B00020ADF8000040F2FF30ADF80200DC
:1045E0000020ADF80400DDE90001FDF711FC012316
:1045F00002A8DDE90012FDF73AFC0EBD30B589B026
:10460000044645A103C9CDE90101032002F06BFB7B
:1046100002F0C8FB0121C80403F0D3FE01210420ED
:1046200003F09CFE4FF4165003900020ADF81000EC
:10463000ADF81200ADF81400ADF818000C20ADF87C
:10464000160008220A21364804F0B7F808220B2188
:10465000334804F0B2F84FF48060079000208DF8E2
:10466000220001208DF8230002208DF820008DF813
:10467000210007A92A4804F01DF84FF400600790B4
:1046800002208DF8200007A9254804F013F803A99B
:10469000244803F021FB012240F22551214803F078
:1046A00059FC01211F4803F09FFB40211D4803F0E6
:1046B00076FC4CF25030FCF705FF02F073FB8DF8EE
:1046C00006409DF808002044C0B22DE04B000020B9
:1046D0004900002072050020C8000020F4000020DE
:1046E00000000020404B4C003C0000201600002041
:1046F0000050004008000020001402400018024052
:1047000044000020100000200400002000040240AB
:104710000C000020400D0300C000003E50C400000B
:1047200000080240004C00408DF80800002505E01C
:1047300001A9485D02F010FB681CC5B2062DF7DB2D
:10474000E548FCF7BFFE02F02DFB0121C80403F091
:1047500038FE0121042003F001FE4FF4E130039004
:104760000020ADF81000ADF81200ADF81400ADF85F
:1047700018000C20ADF8160008220A21D74804F0D2
:104780001CF808220B21D54804F017F84FF480607C
:10479000079000208DF8220001208DF823000220D0
:1047A0008DF820008DF8210007A9CC4803F082FF86
:1047B0004FF40060079002208DF8200007A9C74839
:1047C00003F078FF03A9C64803F086FA012240F2FD
:1047D0002551C34803F0BEFB0121C14803F004FB8F
:1047E0004021BF4803F0DBFB02F0DCFA002002F0BE
:1047F0007AFA44F62060FCF765FE09B030BD70B56A
:104800008EB00822002101A800F05CFF9DF80A008C
:1048100001F0D7F80A2190FBF1F03030C0B28DF8EA
:1048200014009DF80A0001F0CCF80A2190FBF1F287
:1048300001FB12003030C0B28DF815002D208DF82C
:1048400016009DF8090001F0BCF80A2190FBF1F078
:104850003030C0B28DF817009DF8090001F0B1F8B2
:104860000A2190FBF1F201FB12003030C0B28DF84A
:10487000180020208DF819009DF8070001F0A1F81C
:104880000A2190FBF1F03030C0B28DF81A009DF88B
:10489000070001F096F80A2190FBF1F201FB1200EB
:1048A0003030C0B28DF81B003A208DF81C009DF806
:1048B000060001F086F80A2190FBF1F03030C0B21A
:1048C0008DF81D009DF8060001F07BF80A2190FB91
:1048D000F1F201FB12003030C0B28DF81E003A2018
:1048E0008DF81F009DF8050001F06BF80A2190FB80
:1048F000F1F03030C0B28DF820009DF8050001F0D5
:1049000060F80A2190FBF1F201FB12003030C0B2D6
:104910008DF8210020208DF8220002F043FAFCF7E8
:104920003FFD4FF4FA70FCF7CDFD6E4800884FF460
:104930007A7190FBF1F03030C0B28DF823006948F5
:104940000088642190FBF1F00A2190FBF1F201FB59
:1049500012003030C0B28DF824002E208DF82500D2
:1049600060480088642190FBF1F201FB12000A21EB
:1049700090FBF1F03030C0B28DF826005948008825
:1049800090FBF1F201FB12003030C0B28DF827002D
:1049900056208DF8280020208DF8290002F002FA18
:1049A00003A801F09DF801282ED19DF80E000A21E0
:1049B00090FBF1F03030C0B28DF82A009DF80E0067
:1049C00090FBF1F201FB12003030C0B28DF82B00E9
:1049D00043208DF82C0020208DF82D009DF80C0030
:1049E00090FBF1F03030C0B28DF82E009DF80C0035
:1049F00090FBF1F201FB12003030C0B28DF82F00B5
:104A000025208DF8300012E030208DF82A008DF836
:104A10002B0043208DF82C0020208DF82D00302015
:104A20008DF82E008DF82F0025208DF830000D20F8
:104A30008DF831000A208DF832002A480088642160
:104A400090FBF1F016281FDA00244FF400512348A0
:104A500003F08AFEC0B915E000F061FD2248FCF7C2
:104A600031FD00F095FD02F09DF9601CC4B20026F6
:104A700006E01E48FCF726FD02F094F9701CC6B251
:104A8000032EF6DB032CE7DB19480078401C18499D
:104A900008700846007805281BD10020087002F035
:104AA00081F9122213A1184807F0D4F805466DB910
:104AB0001548C16807F0A5FC05460DAB1F2205A9E6
:104AC000114807F06AFA054602F06CF90E4807F043
:104AD000C9FB0EB070BD0000A086010000080240B6
:104AE000004C004032000020C027090040420F0067
:104AF0004A000020303A2F6C6F672F737461747511
:104B0000732E747874000000B405002010B586B0D0
:104B1000044600200090019002F044F90020ADF816
:104B200008006006000CADF80A000020ADF80C008B
:104B3000012305A8DDE90212FDF7D9F90020ADF83F
:104B400008009DF8140000EB4000801C4FF4007139
:104B500001FB040080B2ADF80A000020ADF80C00A3
:104B600002F020F9DDE90201FDF752F90523A04822
:104B7000DDE90212FDF77BF902F014F9012004903F
:104B80000020ADF808009DF8140000EB4000401C28
:104B90004FF4007101FB040080B2ADF80A00002060
:104BA000ADF80C00DDE90201FDF732F9012304A89C
:104BB000DDE90212FDF75BF90020ADF808009DF871
:104BC000140000EB4000C01C4FF4007101FB040016
:104BD00080B2ADF80A000020ADF80C0002F0E2F857
:104BE000DDE90201FDF714F99DF81400401CC0B284
:104BF00005900020ADF808006006000CADF80A0032
:104C00000020ADF80C00DDE90201FDF701F902F02A
:104C1000C9F8012305A8DDE90212FDF728F902F021
:104C2000C1F806B010BD70B586B006460D461446F4
:104C300002F0B8F80020ADF804006006000CADF8F2
:104C400006000020ADF80800012305A8DDE90112E7
:104C5000FDF74DF90020ADF804009DF8140000EBBD
:104C60004000801E4FF4007101FB040080B2ADF8DB
:104C700006000020ADF80800012304A8DDE90112B8
:104C8000FDF735F902F08EF80020ADF804009DF82C
:104C9000140000EB4000401E4FF4007101FB0400C3
:104CA00080B2ADF806009DF81000ADF808002B4664
:104CB0003046DDE90112FDF7DAF80020ADF8040016
:104CC0009DF8140000EB40004FF4007101FB04005C
:104CD00080B2ADF806009DF81000ADF808000D2078
:104CE00095FBF0F0C0B2039002F05CF8012303A83A
:104CF000DDE90112FDF7BBF89DF81000401CC0B2C1
:104D000004900020ADF804009DF8140000EB400072
:104D1000801E4FF4007101FB040080B2ADF8060064
:104D20000020ADF80800DDE90101FDF771F801236D
:104D300004A8DDE90112FDF79AF89DF810003E285D
:104D400051DB0122AC210020FDF73FFA2948008801
:104D5000401C2849088008460088FDF789FB002090
:104D600004900120FFF7D2FE0020FFF7CFFE0120C4
:104D7000FDF703FC0020FDF700FC0220FDF7FDFB22
:104D800000201D4948601D4948600122AB21FDF704
:104D90001CFA18480088401C1649088008460088FC
:104DA000FDF766FB012C05D1012229463046FFF7AD
:104DB0003AFF04E0002229463046FFF734FF4FF463
:104DC00080710F4803F0EAFC0E48FCF77BFB01F012
:104DD000E9FF0C48FCF776FB01F0E4FF4FF480712B
:104DE000074803F0DDFC01F0DDFF06B070BD0000F8
:104DF000560000205C000020C8000020F4000020C5
:104E00000014024040420F001CB50121432003F072
:104E1000A5FA4020009001208DF8040002208DF8B2
:104E2000050000208DF8060001208DF80700694676
:104E3000084803F03FFC4021064803F0AFFC022085
:104E400000906946044803F035FC0221024803F053
:104E5000A5FC1CBD001802400004024010B5044629
:104E6000204600F089FA10BD10B5002000F009FBC3
:104E700010BD10B5012000F004FB10BD1CB50121D0
:104E8000084603F06BFA1020009001208DF8040012
:104E900003208DF8050000208DF8060001208DF814
:104EA00007006946FE4803F005FC00F08CFA10216B
:104EB000FB4803F073FC1CBD10B51021F84803F04B
:104EC0006DFCFF20FFF7CAFF10BD10B5002400BF26
:104ED000FF20FFF7C3FFFF2801D1002010BD641C95
:104EE0006FF07F408442F3D30120F7E710B5102123
:104EF000EB4803F055FCFFF7E8FF08B9002010BDB0
:104F0000FFF7DAFF0120FAE770B505464FF6FF74A8
:104F100001E0601E84B2FF20FFF7A0FFA84201D08D
:104F2000002CF6D10CB9FF2070BD0020FCE770B555
:104F300004460D46FE20FFF7E7FF08B1012070BDD3
:104F400004E0FF2000F018FA2070641C2800A5F18E
:104F500001018DB2F5D1FF20FFF780FFFF20FFF7A1
:104F60007DFF0020EBE770B506460D46FFF7ADFF6D
:104F700008B1012070BD2846FFF770FFFD2D19D044
:104F8000002404E0305D00F0F7F9601C84B2B4F551
:104F9000007FF7DBFF20FFF761FFFF20FFF75EFFD9
:104FA000FF20FFF75BFF044604F01F00052801D037
:104FB0000220DFE70020DDE72DE9F04105460C4641
:104FC00017464FF00008FFF777FFFFF78FFF10B18C
:104FD000FF20BDE8F08145F04000FFF73FFF200EC5
:104FE000FFF73CFFC4F30740FFF738FFC4F3072087
:104FF000FFF734FFE0B2FFF731FF3846FFF72EFF2F
:105000000C2D02D1FF20FFF729FF4FF01F0800BF32
:10501000FF20FFF723FF064616F0800F06D05FEA59
:105020000800A8F1010101F0FF08F1D13046D0E7F6
:1050300070B50546012200210A20FFF7BDFF044696
:1050400024B910212846FFF772FF0446FFF734FF0A
:105050000CB1012070BD0020FCE770B505460122AF
:1050600000210920FFF7A8FF044624B91021284693
:10507000FFF75DFF0446FFF71FFF0CB1012070BD75
:105080000020FCE77FB56846FFF7E7FF10B100207E
:1050900004B070BD9DF8000000F0C000402809D1A8
:1050A0009DF809009DF8081000EB0120401C84B217
:1050B000A50220E09DF8050000F00F009DF80A1001
:1050C00000EBD1109DF8091001F0030100EB410045
:1050D000861C9DF8080080119DF8071000EB8100E8
:1050E0009DF8061001F0030100EB8120441CA6F19D
:1050F000090004FA00F52846CAE7F8B5FFF7BEFE36
:10510000FFF7B2FE002504E0FF20FFF7A7FE681CB2
:1051100085B20A2DF8DB142600BF9522002108462F
:10512000FFF74AFF0446012C04D03000A6F101012C
:105130008EB2F2D100205B490870012C42D1872247
:105140004FF4D5710820FFF737FF01283FD1002524
:1051500006E0FF20FFF782FE0DF80500681C85B20F
:10516000042DF6DB4FF6FE7600BF0122002137202A
:10517000FFF722FF012291072920FFF71DFF0446B8
:1051800024B13000A6F101018EB2EED1002E5FD025
:10519000012200213A20FFF70FFF002858D10025F7
:1051A00006E0FF20FFF75AFE0DF80500681C85B2E7
:1051B000042DF6DB9DF8000010F0400F03D0062010
:1051C0003849087044E004203649087040E0012264
:1051D00000213720FFF7F0FE012200212920FFF7F0
:1051E000EBFE0446012C17DC02202E4908704FF616
:1051F000FE7600BF012200213720FFF7DDFE0122ED
:1052000000212920FFF7D8FE0446BCB13000A6F1EA
:1052100001018EB2EED111E00120224908704FF653
:10522000FE7600BF012200211046FFF7C5FE0446AE
:1052300024B13000A6F101018EB2F3D12EB10122CA
:1052400051021020FFF7B8FE10B100201549087078
:10525000FFF732FEFFF70DFE1248007808B100207C
:10526000F8BD0CB12046FBE7AA20F9E72DE9F04193
:1052700006460F4615460B480078062800D07F02E8
:10528000012D11D1012239461120FFF795FE044668
:1052900024BB69023046FFF74AFE04461EE00000C8
:1052A000000002405E000020012239461220FFF774
:1052B00083FE044600BF4FF400713046FFF737FE0F
:1052C000044606F50076681EC0B2050001D0002C29
:1052D000F1D0012200210C20FFF76EFEFFF7ECFD5C
:1052E0002046BDE8F0812DE9F04106460F461546FF
:1052F00020480078062800D07F02012D0CD1012221
:1053000039461820FFF758FE04466CBBFE21304694
:10531000FFF729FE044627E016480078012809D047
:10532000012200213720FFF747FE012229461720DE
:10533000FFF742FE012239461920FFF73DFE0446E1
:1053400094B900BFFC213046FFF70DFE044606F578
:105350000076681EC0B2050001D0002CF2D0FD21FD
:105360000020FFF700FE0446FFF7A6FD2046BDE83B
:10537000F08100005E00002070B50546002405E0C5
:10538000601CC4B2C82C01DD002070BD0221514850
:1053900003F0EDFE0028F3D029464E4803F0B0FE9E
:1053A000002400BF01214B4803F0E1FE0028F9D0A2
:1053B000601CC4B2C82C01DD0020E6E7454803F0BC
:1053C0009CFEC0B2E1E700B587B00121022002F0E7
:1053D000C5FF0121080303F005F8052203213E481B
:1053E00003F0EBF9052204213B4803F0E6F905221E
:1053F0001146394803F0E1F90820009002208DF8A9
:10540000040003208DF8050000208DF806008DF8BB
:1054100007006946304803F04DF9102000906946B6
:105420002D4803F047F92020009069462A4803F0F0
:1054300041F90020ADF808004FF48270ADF80A0081
:105440000020ADF80C00ADF80E00ADF810004FF4E0
:105450000070ADF812001020ADF814000020ADF877
:1054600016000720ADF8180002A91A4803F00EFD37
:105470000121184803F0EBFDFF20FFF77DFF07B087
:1054800000BD10B586B004460020ADF804004FF40E
:105490008270ADF806000020ADF80800ADF80A00F3
:1054A000ADF80C004FF40070ADF80E001CB93820B8
:1054B000ADF8100002E00820ADF810000020ADF8B3
:1054C00012000720ADF8140001A9024803F0DEFC29
:1054D00006B010BD00300140000402401CB501219F
:1054E000022002F06EFF0121022002F037FF0120AE
:1054F000009002208DF8040003208DF805000020A4
:105500008DF8060001208DF8070069463F4803F03A
:10551000D1F8022200213D4803F04FF91CBD10B51F
:1055200088B00024FFF7DAFF39480068400839499D
:10553000B0FBF1F0401E84B242F20F700690ADF85D
:1055400014400020ADF81C00ADF8160005A9324843
:1055500003F0C9FF6020ADF800000120ADF80200A3
:105560002E48008802900020ADF80C0069462A48B9
:1055700004F0D4F80821284804F0EDF90121264868
:1055800004F01CF80121244804F036F808B010BDDE
:105590001CB50021022002F014FF00211E4804F077
:1055A0002BF8012000908DF8040003208DF80500F1
:1055B00000208DF8060001208DF807006946134889
:1055C00003F078F80121114803F0EAF81CBD1CB57E
:1055D0000021022002F0F5FE00210F4804F00CF833
:1055E000012000908DF8040003208DF805000020B4
:1055F0008DF8060001208DF807006946034803F086
:1056000059F80121014803F0C9F81CBD000402400B
:10561000AC000020002D310100040040600000209B
:105620001CB50121022002F099FE0121480502F07B
:10563000C8FE04220621EE4803F0BFF80422072129
:10564000EB4803F0BAF84020009002208DF80400E7
:105650008DF8050001208DF8060000208DF8070068
:105660006946E34803F026F8802000906946E04848
:1056700003F020F81CBD1FB50020ADF804004BF668
:10568000FF70ADF80600A220ADF808004FF480606E
:10569000ADF80A000001ADF80C00D64800900121D9
:1056A000D54804F06AFD6946D34804F0EAFC0121BC
:1056B000D14804F08EFD1FBD10B5FFF7B1FFFFF715
:1056C000DAFF10BD2DE9F04106460F4615460024CD
:1056D0000121C94804F05DFD04E00520FBF7F2FE5E
:1056E000601CC4B2C549C44804F046FE08B9642C25
:1056F000F3DB00240022D021BF4804F062FD04E067
:105700000520FBF7DFFE601CC4B2BD49BA4804F0B7
:1057100033FE08B9642CF3DB00240121B64804F001
:105720002CFD3946B44804F0D0FD04E00520FBF719
:10573000C9FE601CC4B2B249891CAF4804F01CFE0B
:1057400008B9642CF2DB00240121AB4804F021FDF0
:1057500004E00520FBF7B6FE601CC4B2A749A648CA
:1057600004F00AFE08B9642CF3DB00240122D121E5
:10577000A14804F026FD04E00520FBF7A3FE601C11
:10578000C4B29E49491C9C4804F0F6FD08B9642C3B
:10579000F2DB002416E0012D07D10021964804F029
:1057A00018FD0121944804F000FD94493F319248CE
:1057B00004F0E2FD30B1904804F089FD3070761CB1
:1057C000681EC5B2002DE6D101218B4804F001FD11
:1057D000BDE8F0812DE9F04105460F46164600244C
:1057E0000121854804F0D5FC04E00520FBF76AFEA2
:1057F000601CC4B28149804804F0BEFD08B9642C25
:10580000F3DB00240022D0217B4804F0DAFC04E022
:105810000520FBF757FE601CC4B27949764804F0B6
:10582000ABFD08B9642CF3DB00243946724804F060
:105830004CFD04E00520FBF745FE601CC4B2704936
:10584000891C6D4804F098FD08B9642CF2DB002433
:1058500014E02978684804F038FD6D1C04E002204B
:10586000FBF730FE601CC4B26549891C624804F035
:1058700083FD10B9B4F5967FF1DB00243000A6F16A
:105880000101CEB2E5D101215B4804F08EFCBDE8F8
:10589000F08170B5044600250121574804F079FCD9
:1058A00004E00520FBF70EFE681CC5B253495248C0
:1058B00004F062FD08B9642DF3DB00250022D0213D
:1058C0004D4804F07EFC00BF4D494B4804F054FDA8
:1058D0000028F9D00121484804F04FFC21464648F1
:1058E00004F0F3FC00BF4649891C434804F044FD22
:1058F0000028F8D00121404804F04BFC00BF3F498C
:105900003D4804F039FD0028F9D00122D0213A4861
:1059100004F057FC00BF3949491C374804F02CFDFE
:105920000028F8D00021344804F053FC33493F31BB
:10593000314804F021FD18B12F4804F0C8FC064698
:1059400001212D4804F031FC01212B4804F041FCD9
:10595000304670BD70B504460D460121264804F05E
:1059600018FC00BF2549244804F006FD0028F9D0A2
:105970000022D021204804F024FC00BF20491E480A
:1059800004F0FAFC0028F9D029461B4804F09DFCDD
:1059900000BF1B49891C184804F0EEFC0028F8D011
:1059A0002146154804F091FC00BF1549891C124896
:1059B00004F0E2FC0028F8D001210F4804F0F5FBC8
:1059C00070BD014601F00F020B1103EB830302EBE4
:1059D0004302D0B2704701460A2291FBF2F302FB68
:1059E00013120A2391FBF3F342EA0312D0B2704779
:1059F00000040240A08601000054004001000300A2
:105A0000820007001CB50121202002F0A7FC8020A5
:105A1000009001208DF8040003208DF8050000207F
:105A20008DF8060001208DF807006946534802F002
:105A300041FE8021514802F0B1FE1CBD1CB5802002
:105A4000009000208DF8040002208DF80500012050
:105A50008DF807006946494802F02CFE1CBD1CB5B4
:105A60008020009001208DF8040003208DF80500AF
:105A700000208DF8060001208DF8070069463F4898
:105A800002F018FE1CBD70B50025002424E000BF04
:105A900080213A4802F068FE0028F9D03C20FBF74C
:105AA00011FD8021354802F05FFE01280DD100BFB5
:105AB0008021324802F058FE0128F9D0C4F10701D4
:105AC00001208840C0B2054304E0C4F10701012071
:105AD00088408543601CC4B2082CD8DB284670BDC2
